{
  "_format": "hh-sol-artifact-1",
  "contractName": "NFTMarketplace",
  "sourceName": "contracts/NFTMarketPlace.sol",
  "abi": [
    {
      "inputs": [
        {
          "internalType": "uint256",
          "name": "_feePercent",
          "type": "uint256"
        }
      ],
      "stateMutability": "nonpayable",
      "type": "constructor"
    },
    {
      "anonymous": false,
      "inputs": [
        {
          "indexed": false,
          "internalType": "uint256",
          "name": "itemId",
          "type": "uint256"
        },
        {
          "indexed": true,
          "internalType": "address",
          "name": "nft",
          "type": "address"
        },
        {
          "indexed": false,
          "internalType": "uint256",
          "name": "tokenId",
          "type": "uint256"
        },
        {
          "indexed": false,
          "internalType": "uint256",
          "name": "price",
          "type": "uint256"
        },
        {
          "indexed": true,
          "internalType": "address",
          "name": "seller",
          "type": "address"
        },
        {
          "indexed": true,
          "internalType": "address",
          "name": "buyer",
          "type": "address"
        }
      ],
      "name": "Bought",
      "type": "event"
    },
    {
      "anonymous": false,
      "inputs": [
        {
          "indexed": false,
          "internalType": "uint256",
          "name": "itemId",
          "type": "uint256"
        },
        {
          "indexed": true,
          "internalType": "address",
          "name": "nft",
          "type": "address"
        },
        {
          "indexed": false,
          "internalType": "uint256",
          "name": "tokenId",
          "type": "uint256"
        },
        {
          "indexed": false,
          "internalType": "uint256",
          "name": "price",
          "type": "uint256"
        },
        {
          "indexed": true,
          "internalType": "address",
          "name": "seller",
          "type": "address"
        }
      ],
      "name": "Offered",
      "type": "event"
    },
    {
      "inputs": [],
      "name": "feeAccount",
      "outputs": [
        {
          "internalType": "address payable",
          "name": "",
          "type": "address"
        }
      ],
      "stateMutability": "view",
      "type": "function"
    },
    {
      "inputs": [],
      "name": "feePercent",
      "outputs": [
        {
          "internalType": "uint256",
          "name": "",
          "type": "uint256"
        }
      ],
      "stateMutability": "view",
      "type": "function"
    },
    {
      "inputs": [
        {
          "internalType": "uint256",
          "name": "_itemId",
          "type": "uint256"
        }
      ],
      "name": "getTotalPrice",
      "outputs": [
        {
          "internalType": "uint256",
          "name": "",
          "type": "uint256"
        }
      ],
      "stateMutability": "view",
      "type": "function"
    },
    {
      "inputs": [],
      "name": "itemCount",
      "outputs": [
        {
          "internalType": "uint256",
          "name": "",
          "type": "uint256"
        }
      ],
      "stateMutability": "view",
      "type": "function"
    },
    {
      "inputs": [
        {
          "internalType": "uint256",
          "name": "",
          "type": "uint256"
        }
      ],
      "name": "items",
      "outputs": [
        {
          "internalType": "uint256",
          "name": "itemId",
          "type": "uint256"
        },
        {
          "internalType": "contract IERC721",
          "name": "nft",
          "type": "address"
        },
        {
          "internalType": "uint256",
          "name": "tokenId",
          "type": "uint256"
        },
        {
          "internalType": "uint256",
          "name": "price",
          "type": "uint256"
        },
        {
          "internalType": "address payable",
          "name": "seller",
          "type": "address"
        },
        {
          "internalType": "address",
          "name": "buyer",
          "type": "address"
        },
        {
          "internalType": "bool",
          "name": "sold",
          "type": "bool"
        }
      ],
      "stateMutability": "view",
      "type": "function"
    },
    {
      "inputs": [
        {
          "internalType": "contract IERC721",
          "name": "_nft",
          "type": "address"
        },
        {
          "internalType": "uint256",
          "name": "_tokenId",
          "type": "uint256"
        },
        {
          "internalType": "uint256",
          "name": "_price",
          "type": "uint256"
        },
        {
          "internalType": "address",
          "name": "sellerAddress",
          "type": "address"
        }
      ],
      "name": "makeItem",
      "outputs": [],
      "stateMutability": "payable",
      "type": "function"
    }
  ],
  "bytecode": "0x60c060405234801561001057600080fd5b50604051610d97380380610d97833981810160405281019061003291906100b7565b60016000819055503373ffffffffffffffffffffffffffffffffffffffff1660808173ffffffffffffffffffffffffffffffffffffffff16815250508060a08181525050506100e4565b600080fd5b6000819050919050565b61009481610081565b811461009f57600080fd5b50565b6000815190506100b18161008b565b92915050565b6000602082840312156100cd576100cc61007c565b5b60006100db848285016100a2565b91505092915050565b60805160a051610c806101176000396000818161051401526105eb01526000818161019801526104ea0152610c806000f3fe6080604052600436106100555760003560e01c80632d121be41461005a57806365e17c9d146100765780636bfb0d01146100a15780637fd6f15c146100cc578063bfb231d2146100f7578063ca7dd3751461013a575b600080fd5b610074600480360381019061006f9190610779565b610177565b005b34801561008257600080fd5b5061008b6104e8565b6040516100989190610801565b60405180910390f35b3480156100ad57600080fd5b506100b661050c565b6040516100c3919061082b565b60405180910390f35b3480156100d857600080fd5b506100e1610512565b6040516100ee919061082b565b60405180910390f35b34801561010357600080fd5b5061011e60048036038101906101199190610846565b610536565b60405161013197969594939291906108fc565b60405180910390f35b34801561014657600080fd5b50610161600480360381019061015c9190610846565b6105e5565b60405161016e919061082b565b60405180910390f35b61017f610648565b3373ffffffffffffffffffffffffffffffffffffffff167f00000000000000000000000000000000000000000000000000000000000000005050600082116101fc576040517f08c379a00000000000000000000000000000000000000000000000000000000081526004016101f3906109c8565b60405180910390fd5b6001600081548092919061020f90610a17565b91905055508373ffffffffffffffffffffffffffffffffffffffff166323b872dd3383866040518463ffffffff1660e01b815260040161025193929190610a60565b600060405180830381600087803b15801561026b57600080fd5b505af115801561027f573d6000803e3d6000fd5b505050508073ffffffffffffffffffffffffffffffffffffffff166108fc839081150290604051600060405180830381858888f193505050501580156102c9573d6000803e3d6000fd5b506040518060e0016040528060015481526020018573ffffffffffffffffffffffffffffffffffffffff1681526020018481526020018381526020013373ffffffffffffffffffffffffffffffffffffffff1681526020018273ffffffffffffffffffffffffffffffffffffffff168152602001600015158152506002600060015481526020019081526020016000206000820151816000015560208201518160010160006101000a81548173ffffffffffffffffffffffffffffffffffffffff021916908373ffffffffffffffffffffffffffffffffffffffff160217905550604082015181600201556060820151816003015560808201518160040160006101000a81548173ffffffffffffffffffffffffffffffffffffffff021916908373ffffffffffffffffffffffffffffffffffffffff16021790555060a08201518160050160006101000a81548173ffffffffffffffffffffffffffffffffffffffff021916908373ffffffffffffffffffffffffffffffffffffffff16021790555060c08201518160050160146101000a81548160ff0219169083151502179055509050503373ffffffffffffffffffffffffffffffffffffffff168473ffffffffffffffffffffffffffffffffffffffff167f655a0cf9c8db81512be9a76dc1c5ae5380b8816ce6ad659cd61b715e2999d59a60015486866040516104d293929190610a97565b60405180910390a36104e2610698565b50505050565b7f000000000000000000000000000000000000000000000000000000000000000081565b60015481565b7f000000000000000000000000000000000000000000000000000000000000000081565b60026020528060005260406000206000915090508060000154908060010160009054906101000a900473ffffffffffffffffffffffffffffffffffffffff16908060020154908060030154908060040160009054906101000a900473ffffffffffffffffffffffffffffffffffffffff16908060050160009054906101000a900473ffffffffffffffffffffffffffffffffffffffff16908060050160149054906101000a900460ff16905087565b600060647f000000000000000000000000000000000000000000000000000000000000000060646106169190610ace565b60026000858152602001908152602001600020600301546106379190610b24565b6106419190610bad565b9050919050565b6002600054141561068e576040517f08c379a000000000000000000000000000000000000000000000000000000000815260040161068590610c2a565b60405180910390fd5b6002600081905550565b6001600081905550565b600080fd5b600073ffffffffffffffffffffffffffffffffffffffff82169050919050565b60006106d2826106a7565b9050919050565b60006106e4826106c7565b9050919050565b6106f4816106d9565b81146106ff57600080fd5b50565b600081359050610711816106eb565b92915050565b6000819050919050565b61072a81610717565b811461073557600080fd5b50565b60008135905061074781610721565b92915050565b610756816106c7565b811461076157600080fd5b50565b6000813590506107738161074d565b92915050565b60008060008060808587031215610793576107926106a2565b5b60006107a187828801610702565b94505060206107b287828801610738565b93505060406107c387828801610738565b92505060606107d487828801610764565b91505092959194509250565b60006107eb826106a7565b9050919050565b6107fb816107e0565b82525050565b600060208201905061081660008301846107f2565b92915050565b61082581610717565b82525050565b6000602082019050610840600083018461081c565b92915050565b60006020828403121561085c5761085b6106a2565b5b600061086a84828501610738565b91505092915050565b6000819050919050565b600061089861089361088e846106a7565b610873565b6106a7565b9050919050565b60006108aa8261087d565b9050919050565b60006108bc8261089f565b9050919050565b6108cc816108b1565b82525050565b6108db816106c7565b82525050565b60008115159050919050565b6108f6816108e1565b82525050565b600060e082019050610911600083018a61081c565b61091e60208301896108c3565b61092b604083018861081c565b610938606083018761081c565b61094560808301866107f2565b61095260a08301856108d2565b61095f60c08301846108ed565b98975050505050505050565b600082825260208201905092915050565b7f5072696365206d7573742062652067726561746572207468616e207a65726f00600082015250565b60006109b2601f8361096b565b91506109bd8261097c565b602082019050919050565b600060208201905081810360008301526109e1816109a5565b9050919050565b7f4e487b7100000000000000000000000000000000000000000000000000000000600052601160045260246000fd5b6000610a2282610717565b91507fffffffffffffffffffffffffffffffffffffffffffffffffffffffffffffffff821415610a5557610a546109e8565b5b600182019050919050565b6000606082019050610a7560008301866108d2565b610a8260208301856108d2565b610a8f604083018461081c565b949350505050565b6000606082019050610aac600083018661081c565b610ab9602083018561081c565b610ac6604083018461081c565b949350505050565b6000610ad982610717565b9150610ae483610717565b9250827fffffffffffffffffffffffffffffffffffffffffffffffffffffffffffffffff03821115610b1957610b186109e8565b5b828201905092915050565b6000610b2f82610717565b9150610b3a83610717565b9250817fffffffffffffffffffffffffffffffffffffffffffffffffffffffffffffffff0483118215151615610b7357610b726109e8565b5b828202905092915050565b7f4e487b7100000000000000000000000000000000000000000000000000000000600052601260045260246000fd5b6000610bb882610717565b9150610bc383610717565b925082610bd357610bd2610b7e565b5b828204905092915050565b7f5265656e7472616e637947756172643a207265656e7472616e742063616c6c00600082015250565b6000610c14601f8361096b565b9150610c1f82610bde565b602082019050919050565b60006020820190508181036000830152610c4381610c07565b905091905056fea264697066735822122060ba3de2697c726096b729ae3ade1bec81dd99d6ff444c4f995d6f910bd2460564736f6c63430008090033",
  "linkReferences": {},
  "deployedLinkReferences": {}
}